{
  "address": "0xe7f1725E7734CE288F8367e1Bb143E90bb3F0512",
  "abi": [
    {
      "inputs": [
        {
          "internalType": "address",
          "name": "stakingToken",
          "type": "address"
        },
        {
          "internalType": "address",
          "name": "rewardToken",
          "type": "address"
        }
      ],
      "stateMutability": "nonpayable",
      "type": "constructor"
    },
    {
      "inputs": [],
      "name": "Staking__NeedsMoreThanZero",
      "type": "error"
    },
    {
      "inputs": [],
      "name": "Staking__TransferFailed",
      "type": "error"
    },
    {
      "anonymous": false,
      "inputs": [
        {
          "indexed": true,
          "internalType": "address",
          "name": "user",
          "type": "address"
        },
        {
          "indexed": true,
          "internalType": "uint256",
          "name": "amount",
          "type": "uint256"
        }
      ],
      "name": "RewardsClaimed",
      "type": "event"
    },
    {
      "anonymous": false,
      "inputs": [
        {
          "indexed": true,
          "internalType": "address",
          "name": "user",
          "type": "address"
        },
        {
          "indexed": true,
          "internalType": "uint256",
          "name": "amount",
          "type": "uint256"
        }
      ],
      "name": "Staked",
      "type": "event"
    },
    {
      "anonymous": false,
      "inputs": [
        {
          "indexed": true,
          "internalType": "address",
          "name": "user",
          "type": "address"
        },
        {
          "indexed": true,
          "internalType": "uint256",
          "name": "amount",
          "type": "uint256"
        }
      ],
      "name": "WithdrewStake",
      "type": "event"
    },
    {
      "inputs": [],
      "name": "REWARD_RATE",
      "outputs": [
        {
          "internalType": "uint256",
          "name": "",
          "type": "uint256"
        }
      ],
      "stateMutability": "view",
      "type": "function"
    },
    {
      "inputs": [],
      "name": "claimReward",
      "outputs": [],
      "stateMutability": "nonpayable",
      "type": "function"
    },
    {
      "inputs": [
        {
          "internalType": "address",
          "name": "account",
          "type": "address"
        }
      ],
      "name": "earned",
      "outputs": [
        {
          "internalType": "uint256",
          "name": "",
          "type": "uint256"
        }
      ],
      "stateMutability": "view",
      "type": "function"
    },
    {
      "inputs": [
        {
          "internalType": "address",
          "name": "account",
          "type": "address"
        }
      ],
      "name": "getStaked",
      "outputs": [
        {
          "internalType": "uint256",
          "name": "",
          "type": "uint256"
        }
      ],
      "stateMutability": "view",
      "type": "function"
    },
    {
      "inputs": [],
      "name": "rewardPerToken",
      "outputs": [
        {
          "internalType": "uint256",
          "name": "",
          "type": "uint256"
        }
      ],
      "stateMutability": "view",
      "type": "function"
    },
    {
      "inputs": [
        {
          "internalType": "address",
          "name": "",
          "type": "address"
        }
      ],
      "name": "s_balances",
      "outputs": [
        {
          "internalType": "uint256",
          "name": "",
          "type": "uint256"
        }
      ],
      "stateMutability": "view",
      "type": "function"
    },
    {
      "inputs": [],
      "name": "s_lastUpdateTime",
      "outputs": [
        {
          "internalType": "uint256",
          "name": "",
          "type": "uint256"
        }
      ],
      "stateMutability": "view",
      "type": "function"
    },
    {
      "inputs": [],
      "name": "s_rewardPerTokenStored",
      "outputs": [
        {
          "internalType": "uint256",
          "name": "",
          "type": "uint256"
        }
      ],
      "stateMutability": "view",
      "type": "function"
    },
    {
      "inputs": [],
      "name": "s_rewardToken",
      "outputs": [
        {
          "internalType": "contract IERC20",
          "name": "",
          "type": "address"
        }
      ],
      "stateMutability": "view",
      "type": "function"
    },
    {
      "inputs": [
        {
          "internalType": "address",
          "name": "",
          "type": "address"
        }
      ],
      "name": "s_rewards",
      "outputs": [
        {
          "internalType": "uint256",
          "name": "",
          "type": "uint256"
        }
      ],
      "stateMutability": "view",
      "type": "function"
    },
    {
      "inputs": [],
      "name": "s_stakingToken",
      "outputs": [
        {
          "internalType": "contract IERC20",
          "name": "",
          "type": "address"
        }
      ],
      "stateMutability": "view",
      "type": "function"
    },
    {
      "inputs": [],
      "name": "s_totalSupply",
      "outputs": [
        {
          "internalType": "uint256",
          "name": "",
          "type": "uint256"
        }
      ],
      "stateMutability": "view",
      "type": "function"
    },
    {
      "inputs": [
        {
          "internalType": "address",
          "name": "",
          "type": "address"
        }
      ],
      "name": "s_userRewardPerTokenPaid",
      "outputs": [
        {
          "internalType": "uint256",
          "name": "",
          "type": "uint256"
        }
      ],
      "stateMutability": "view",
      "type": "function"
    },
    {
      "inputs": [
        {
          "internalType": "uint256",
          "name": "amount",
          "type": "uint256"
        }
      ],
      "name": "stake",
      "outputs": [],
      "stateMutability": "nonpayable",
      "type": "function"
    },
    {
      "inputs": [
        {
          "internalType": "uint256",
          "name": "amount",
          "type": "uint256"
        }
      ],
      "name": "withdraw",
      "outputs": [],
      "stateMutability": "nonpayable",
      "type": "function"
    }
  ],
  "transactionHash": "0x6c36483ab619abdcb7b8144dbeb42d9ec02938a19438c47eb4c014106a91a5fd",
  "args": [
    "0x5FbDB2315678afecb367f032d93F642f64180aa3",
    "0x5FbDB2315678afecb367f032d93F642f64180aa3"
  ],
  "numDeployments": 1,
  "solcInputHash": "8fb1b859ad53550f576f1fddbab6519f",
  "bytecode": "0x60806040523480156200001157600080fd5b50604051620012c4380380620012c48339818101604052810190620000379190620000d7565b816000806101000a81548173ffffffffffffffffffffffffffffffffffffffff021916908373ffffffffffffffffffffffffffffffffffffffff16021790555080600160006101000a81548173ffffffffffffffffffffffffffffffffffffffff021916908373ffffffffffffffffffffffffffffffffffffffff160217905550505062000171565b600081519050620000d18162000157565b92915050565b60008060408385031215620000f157620000f062000152565b5b60006200010185828601620000c0565b92505060206200011485828601620000c0565b9150509250929050565b60006200012b8262000132565b9050919050565b600073ffffffffffffffffffffffffffffffffffffffff82169050919050565b600080fd5b62000162816200011e565b81146200016e57600080fd5b50565b61114380620001816000396000f3fe608060405234801561001057600080fd5b50600436106100f45760003560e01c80636aa0838f11610097578063b88a802f11610066578063b88a802f14610275578063bea081511461027f578063cd3daf9d146102af578063f245ace4146102cd576100f4565b80636aa0838f146101ed578063a694fc3a1461020b578063ab32eb6914610227578063adca9b7214610257576100f4565b8063399080ec116100d3578063399080ec146101635780635997bb37146101935780636374cc00146101b15780636a74a0fc146101cf576100f4565b80628cc262146100f95780632e1a7d4d14610129578063304ac91b14610145575b600080fd5b610113600480360381019061010e9190610d88565b6102fd565b6040516101209190610eb7565b60405180910390f35b610143600480360381019061013e9190610de2565b61041c565b005b61014d6106d5565b60405161015a9190610eb7565b60405180910390f35b61017d60048036038101906101789190610d88565b6106db565b60405161018a9190610eb7565b60405180910390f35b61019b610724565b6040516101a89190610eb7565b60405180910390f35b6101b9610729565b6040516101c69190610e9c565b60405180910390f35b6101d761074f565b6040516101e49190610eb7565b60405180910390f35b6101f5610755565b6040516102029190610eb7565b60405180910390f35b61022560048036038101906102209190610de2565b61075b565b005b610241600480360381019061023c9190610d88565b610a16565b60405161024e9190610eb7565b60405180910390f35b61025f610a2e565b60405161026c9190610e9c565b60405180910390f35b61027d610a52565b005b61029960048036038101906102949190610d88565b610cb6565b6040516102a69190610eb7565b60405180910390f35b6102b7610cce565b6040516102c49190610eb7565b60405180910390f35b6102e760048036038101906102e29190610d88565b610d31565b6040516102f49190610eb7565b60405180910390f35b600080600260008473ffffffffffffffffffffffffffffffffffffffff1673ffffffffffffffffffffffffffffffffffffffff1681526020019081526020016000205490506000600360008573ffffffffffffffffffffffffffffffffffffffff1673ffffffffffffffffffffffffffffffffffffffff1681526020019081526020016000205490506000610390610cce565b90506000600460008773ffffffffffffffffffffffffffffffffffffffff1673ffffffffffffffffffffffffffffffffffffffff168152602001908152602001600020549050600081670de0b6b3a764000085856103ee9190610fb3565b876103f99190610f59565b6104039190610f28565b61040d9190610ed2565b90508095505050505050919050565b33610425610cce565b6006819055504260078190555061043b816102fd565b600460008373ffffffffffffffffffffffffffffffffffffffff1673ffffffffffffffffffffffffffffffffffffffff16815260200190815260200160002081905550600654600360008373ffffffffffffffffffffffffffffffffffffffff1673ffffffffffffffffffffffffffffffffffffffff16815260200190815260200160002081905550816000811415610500576040517f9b677fa000000000000000000000000000000000000000000000000000000000815260040160405180910390fd5b82600260003373ffffffffffffffffffffffffffffffffffffffff1673ffffffffffffffffffffffffffffffffffffffff1681526020019081526020016000205461054b9190610fb3565b600260003373ffffffffffffffffffffffffffffffffffffffff1673ffffffffffffffffffffffffffffffffffffffff168152602001908152602001600020819055508260055461059c9190610fb3565b600581905550823373ffffffffffffffffffffffffffffffffffffffff167f4cb6da433ea55f6e302b7bdbfeed740816a42301cde7f5bac5dff2b34037637460405160405180910390a360008060009054906101000a900473ffffffffffffffffffffffffffffffffffffffff1673ffffffffffffffffffffffffffffffffffffffff1663a9059cbb33866040518363ffffffff1660e01b8152600401610644929190610e73565b602060405180830381600087803b15801561065e57600080fd5b505af1158015610672573d6000803e3d6000fd5b505050506040513d601f19601f820116820180604052508101906106969190610db5565b9050806106cf576040517feb4c684700000000000000000000000000000000000000000000000000000000815260040160405180910390fd5b50505050565b60065481565b6000600260008373ffffffffffffffffffffffffffffffffffffffff1673ffffffffffffffffffffffffffffffffffffffff168152602001908152602001600020549050919050565b606481565b600160009054906101000a900473ffffffffffffffffffffffffffffffffffffffff1681565b60055481565b60075481565b33610764610cce565b6006819055504260078190555061077a816102fd565b600460008373ffffffffffffffffffffffffffffffffffffffff1673ffffffffffffffffffffffffffffffffffffffff16815260200190815260200160002081905550600654600360008373ffffffffffffffffffffffffffffffffffffffff1673ffffffffffffffffffffffffffffffffffffffff1681526020019081526020016000208190555081600081141561083f576040517f9b677fa000000000000000000000000000000000000000000000000000000000815260040160405180910390fd5b82600260003373ffffffffffffffffffffffffffffffffffffffff1673ffffffffffffffffffffffffffffffffffffffff1681526020019081526020016000205461088a9190610ed2565b600260003373ffffffffffffffffffffffffffffffffffffffff1673ffffffffffffffffffffffffffffffffffffffff16815260200190815260200160002081905550826005546108db9190610ed2565b600581905550823373ffffffffffffffffffffffffffffffffffffffff167f9e71bc8eea02a63969f509818f2dafb9254532904319f9dbda79b67bd34a5f3d60405160405180910390a360008060009054906101000a900473ffffffffffffffffffffffffffffffffffffffff1673ffffffffffffffffffffffffffffffffffffffff166323b872dd3330876040518463ffffffff1660e01b815260040161098593929190610e3c565b602060405180830381600087803b15801561099f57600080fd5b505af11580156109b3573d6000803e3d6000fd5b505050506040513d601f19601f820116820180604052508101906109d79190610db5565b905080610a10576040517feb4c684700000000000000000000000000000000000000000000000000000000815260040160405180910390fd5b50505050565b60026020528060005260406000206000915090505481565b60008054906101000a900473ffffffffffffffffffffffffffffffffffffffff1681565b33610a5b610cce565b60068190555042600781905550610a71816102fd565b600460008373ffffffffffffffffffffffffffffffffffffffff1673ffffffffffffffffffffffffffffffffffffffff16815260200190815260200160002081905550600654600360008373ffffffffffffffffffffffffffffffffffffffff1673ffffffffffffffffffffffffffffffffffffffff168152602001908152602001600020819055506000600460003373ffffffffffffffffffffffffffffffffffffffff1673ffffffffffffffffffffffffffffffffffffffff1681526020019081526020016000205490506000600460003373ffffffffffffffffffffffffffffffffffffffff1673ffffffffffffffffffffffffffffffffffffffff16815260200190815260200160002081905550803373ffffffffffffffffffffffffffffffffffffffff167ffc30cddea38e2bf4d6ea7d3f9ed3b6ad7f176419f4963bd81318067a4aee73fe60405160405180910390a36000600160009054906101000a900473ffffffffffffffffffffffffffffffffffffffff1673ffffffffffffffffffffffffffffffffffffffff1663a9059cbb33846040518363ffffffff1660e01b8152600401610c26929190610e73565b602060405180830381600087803b158015610c4057600080fd5b505af1158015610c54573d6000803e3d6000fd5b505050506040513d601f19601f82011682018060405250810190610c789190610db5565b905080610cb1576040517feb4c684700000000000000000000000000000000000000000000000000000000815260040160405180910390fd5b505050565b60046020528060005260406000206000915090505481565b6000806005541415610ce4576006549050610d2e565b600554670de0b6b3a7640000606460075442610d009190610fb3565b610d0a9190610f59565b610d149190610f59565b610d1e9190610f28565b600654610d2b9190610ed2565b90505b90565b60036020528060005260406000206000915090505481565b600081359050610d58816110c8565b92915050565b600081519050610d6d816110df565b92915050565b600081359050610d82816110f6565b92915050565b600060208284031215610d9e57610d9d6110c3565b5b6000610dac84828501610d49565b91505092915050565b600060208284031215610dcb57610dca6110c3565b5b6000610dd984828501610d5e565b91505092915050565b600060208284031215610df857610df76110c3565b5b6000610e0684828501610d73565b91505092915050565b610e1881610fe7565b82525050565b610e278161102f565b82525050565b610e3681611025565b82525050565b6000606082019050610e516000830186610e0f565b610e5e6020830185610e0f565b610e6b6040830184610e2d565b949350505050565b6000604082019050610e886000830185610e0f565b610e956020830184610e2d565b9392505050565b6000602082019050610eb16000830184610e1e565b92915050565b6000602082019050610ecc6000830184610e2d565b92915050565b6000610edd82611025565b9150610ee883611025565b9250827fffffffffffffffffffffffffffffffffffffffffffffffffffffffffffffffff03821115610f1d57610f1c611065565b5b828201905092915050565b6000610f3382611025565b9150610f3e83611025565b925082610f4e57610f4d611094565b5b828204905092915050565b6000610f6482611025565b9150610f6f83611025565b9250817fffffffffffffffffffffffffffffffffffffffffffffffffffffffffffffffff0483118215151615610fa857610fa7611065565b5b828202905092915050565b6000610fbe82611025565b9150610fc983611025565b925082821015610fdc57610fdb611065565b5b828203905092915050565b6000610ff282611005565b9050919050565b60008115159050919050565b600073ffffffffffffffffffffffffffffffffffffffff82169050919050565b6000819050919050565b600061103a82611041565b9050919050565b600061104c82611053565b9050919050565b600061105e82611005565b9050919050565b7f4e487b7100000000000000000000000000000000000000000000000000000000600052601160045260246000fd5b7f4e487b7100000000000000000000000000000000000000000000000000000000600052601260045260246000fd5b600080fd5b6110d181610fe7565b81146110dc57600080fd5b50565b6110e881610ff9565b81146110f357600080fd5b50565b6110ff81611025565b811461110a57600080fd5b5056fea264697066735822122051fcd594fc5847ff0052db41744089ca26fde608d7911a0e7994e51e53342c8864736f6c63430008070033",
  "devdoc": {
    "kind": "dev",
    "methods": {},
    "version": 1
  },
  "userdoc": {
    "kind": "user",
    "methods": {},
    "version": 1
  },
  "storageLayout": {
    "storage": [
      {
        "astId": 87,
        "contract": "contracts/Staking.sol:Staking",
        "label": "s_stakingToken",
        "offset": 0,
        "slot": "0",
        "type": "t_contract(IERC20)77"
      },
      {
        "astId": 90,
        "contract": "contracts/Staking.sol:Staking",
        "label": "s_rewardToken",
        "offset": 0,
        "slot": "1",
        "type": "t_contract(IERC20)77"
      },
      {
        "astId": 94,
        "contract": "contracts/Staking.sol:Staking",
        "label": "s_balances",
        "offset": 0,
        "slot": "2",
        "type": "t_mapping(t_address,t_uint256)"
      },
      {
        "astId": 98,
        "contract": "contracts/Staking.sol:Staking",
        "label": "s_userRewardPerTokenPaid",
        "offset": 0,
        "slot": "3",
        "type": "t_mapping(t_address,t_uint256)"
      },
      {
        "astId": 102,
        "contract": "contracts/Staking.sol:Staking",
        "label": "s_rewards",
        "offset": 0,
        "slot": "4",
        "type": "t_mapping(t_address,t_uint256)"
      },
      {
        "astId": 107,
        "contract": "contracts/Staking.sol:Staking",
        "label": "s_totalSupply",
        "offset": 0,
        "slot": "5",
        "type": "t_uint256"
      },
      {
        "astId": 109,
        "contract": "contracts/Staking.sol:Staking",
        "label": "s_rewardPerTokenStored",
        "offset": 0,
        "slot": "6",
        "type": "t_uint256"
      },
      {
        "astId": 111,
        "contract": "contracts/Staking.sol:Staking",
        "label": "s_lastUpdateTime",
        "offset": 0,
        "slot": "7",
        "type": "t_uint256"
      }
    ],
    "types": {
      "t_address": {
        "encoding": "inplace",
        "label": "address",
        "numberOfBytes": "20"
      },
      "t_contract(IERC20)77": {
        "encoding": "inplace",
        "label": "contract IERC20",
        "numberOfBytes": "20"
      },
      "t_mapping(t_address,t_uint256)": {
        "encoding": "mapping",
        "key": "t_address",
        "label": "mapping(address => uint256)",
        "numberOfBytes": "32",
        "value": "t_uint256"
      },
      "t_uint256": {
        "encoding": "inplace",
        "label": "uint256",
        "numberOfBytes": "32"
      }
    }
  }
}